{
  "contractName": "BitDelta",
  "abi": [
    {
      "inputs": [
        {
          "internalType": "address[13]",
          "name": "addresses",
          "type": "address[13]"
        }
      ],
      "stateMutability": "nonpayable",
      "type": "constructor"
    },
    {
      "anonymous": false,
      "inputs": [
        {
          "indexed": true,
          "internalType": "address",
          "name": "owner",
          "type": "address"
        },
        {
          "indexed": true,
          "internalType": "address",
          "name": "spender",
          "type": "address"
        },
        {
          "indexed": false,
          "internalType": "uint256",
          "name": "value",
          "type": "uint256"
        }
      ],
      "name": "Approval",
      "type": "event"
    },
    {
      "anonymous": false,
      "inputs": [
        {
          "indexed": true,
          "internalType": "address",
          "name": "previousOwner",
          "type": "address"
        },
        {
          "indexed": true,
          "internalType": "address",
          "name": "newOwner",
          "type": "address"
        }
      ],
      "name": "OwnershipTransferred",
      "type": "event"
    },
    {
      "anonymous": false,
      "inputs": [
        {
          "indexed": true,
          "internalType": "address",
          "name": "from",
          "type": "address"
        },
        {
          "indexed": true,
          "internalType": "address",
          "name": "to",
          "type": "address"
        },
        {
          "indexed": false,
          "internalType": "uint256",
          "name": "value",
          "type": "uint256"
        }
      ],
      "name": "Transfer",
      "type": "event"
    },
    {
      "inputs": [],
      "name": "MAX_SUPPLY",
      "outputs": [
        {
          "internalType": "uint256",
          "name": "",
          "type": "uint256"
        }
      ],
      "stateMutability": "view",
      "type": "function"
    },
    {
      "inputs": [
        {
          "internalType": "address",
          "name": "owner",
          "type": "address"
        },
        {
          "internalType": "address",
          "name": "spender",
          "type": "address"
        }
      ],
      "name": "allowance",
      "outputs": [
        {
          "internalType": "uint256",
          "name": "",
          "type": "uint256"
        }
      ],
      "stateMutability": "view",
      "type": "function"
    },
    {
      "inputs": [
        {
          "internalType": "address",
          "name": "spender",
          "type": "address"
        },
        {
          "internalType": "uint256",
          "name": "amount",
          "type": "uint256"
        }
      ],
      "name": "approve",
      "outputs": [
        {
          "internalType": "bool",
          "name": "",
          "type": "bool"
        }
      ],
      "stateMutability": "nonpayable",
      "type": "function"
    },
    {
      "inputs": [
        {
          "internalType": "address",
          "name": "account",
          "type": "address"
        }
      ],
      "name": "balanceOf",
      "outputs": [
        {
          "internalType": "uint256",
          "name": "",
          "type": "uint256"
        }
      ],
      "stateMutability": "view",
      "type": "function"
    },
    {
      "inputs": [],
      "name": "decimals",
      "outputs": [
        {
          "internalType": "uint8",
          "name": "",
          "type": "uint8"
        }
      ],
      "stateMutability": "view",
      "type": "function"
    },
    {
      "inputs": [
        {
          "internalType": "address",
          "name": "spender",
          "type": "address"
        },
        {
          "internalType": "uint256",
          "name": "subtractedValue",
          "type": "uint256"
        }
      ],
      "name": "decreaseAllowance",
      "outputs": [
        {
          "internalType": "bool",
          "name": "",
          "type": "bool"
        }
      ],
      "stateMutability": "nonpayable",
      "type": "function"
    },
    {
      "inputs": [
        {
          "internalType": "address",
          "name": "spender",
          "type": "address"
        },
        {
          "internalType": "uint256",
          "name": "addedValue",
          "type": "uint256"
        }
      ],
      "name": "increaseAllowance",
      "outputs": [
        {
          "internalType": "bool",
          "name": "",
          "type": "bool"
        }
      ],
      "stateMutability": "nonpayable",
      "type": "function"
    },
    {
      "inputs": [],
      "name": "name",
      "outputs": [
        {
          "internalType": "string",
          "name": "",
          "type": "string"
        }
      ],
      "stateMutability": "view",
      "type": "function"
    },
    {
      "inputs": [],
      "name": "owner",
      "outputs": [
        {
          "internalType": "address",
          "name": "",
          "type": "address"
        }
      ],
      "stateMutability": "view",
      "type": "function"
    },
    {
      "inputs": [],
      "name": "renounceOwnership",
      "outputs": [],
      "stateMutability": "nonpayable",
      "type": "function"
    },
    {
      "inputs": [],
      "name": "symbol",
      "outputs": [
        {
          "internalType": "string",
          "name": "",
          "type": "string"
        }
      ],
      "stateMutability": "view",
      "type": "function"
    },
    {
      "inputs": [],
      "name": "totalSupply",
      "outputs": [
        {
          "internalType": "uint256",
          "name": "",
          "type": "uint256"
        }
      ],
      "stateMutability": "view",
      "type": "function"
    },
    {
      "inputs": [
        {
          "internalType": "address",
          "name": "to",
          "type": "address"
        },
        {
          "internalType": "uint256",
          "name": "amount",
          "type": "uint256"
        }
      ],
      "name": "transfer",
      "outputs": [
        {
          "internalType": "bool",
          "name": "",
          "type": "bool"
        }
      ],
      "stateMutability": "nonpayable",
      "type": "function"
    },
    {
      "inputs": [
        {
          "internalType": "address",
          "name": "from",
          "type": "address"
        },
        {
          "internalType": "address",
          "name": "to",
          "type": "address"
        },
        {
          "internalType": "uint256",
          "name": "amount",
          "type": "uint256"
        }
      ],
      "name": "transferFrom",
      "outputs": [
        {
          "internalType": "bool",
          "name": "",
          "type": "bool"
        }
      ],
      "stateMutability": "nonpayable",
      "type": "function"
    },
    {
      "inputs": [
        {
          "internalType": "address",
          "name": "newOwner",
          "type": "address"
        }
      ],
      "name": "transferOwnership",
      "outputs": [],
      "stateMutability": "nonpayable",
      "type": "function"
    }
  ],
  "bytecode": "0x60806040523480156200001157600080fd5b506040516200131a3803806200131a833981016040819052620000349162000436565b6040518060400160405280600881526020017f42697444656c74610000000000000000000000000000000000000000000000008152506040518060400160405280600381526020017f42445400000000000000000000000000000000000000000000000000000000008152508160039081620000b191906200057a565b506004620000c082826200057a565b505050620000ef620000e062000299640100000000026401000000009004565b6401000000006200029d810204565b6200013b8160005b60200201516200010f640100000000620002ef810204565b6200011c90600a6200077d565b6200012c90630e4e1c0062000795565b640100000000620002f4810204565b6020810151620001759062000158640100000000620002ef810204565b6200016590600a6200077d565b6200012c906315752a0062000795565b62000182816002620000f7565b6200018f816003620000f7565b6200019c816004620000f7565b620001d98160055b6020020151620001bc640100000000620002ef810204565b620001c990600a6200077d565b6200012c906307270e0062000795565b620001e6816006620001a4565b620001f3816007620001a4565b62000200816008620001a4565b6200020d816009620001a4565b6200024a81600a5b60200201516200022d640100000000620002ef810204565b6200023a90600a6200077d565b6200012c90630986f70062000795565b6200025781600b62000215565b610180810151620002929062000275640100000000620002ef810204565b6200028290600a6200077d565b6200012c9063098e4a0062000795565b50620007c5565b3390565b60058054600160a060020a03838116600160a060020a0319831681179093556040519116919082907f8be0079c531659141344cd1fd0a4f28419497f9722a3daafe3b4186f6b6457e090600090a35050565b601290565b600160a060020a03821662000369576040517f08c379a000000000000000000000000000000000000000000000000000000000815260206004820152601f60248201527f45524332303a206d696e7420746f20746865207a65726f206164647265737300604482015260640160405180910390fd5b620003806000838364010000000062000402810204565b8060026000828254620003949190620007af565b9091555050600160a060020a038216600081815260208181526040808320805486019055518481527fddf252ad1be2c89b69c2b068fc378daa952ba7f163c4a11628f55a4df523b3ef910160405180910390a3620003fe6000838364010000000062000402810204565b5050565b505050565b7f4e487b7100000000000000000000000000000000000000000000000000000000600052604160045260246000fd5b60006101a08083850312156200044b57600080fd5b83601f8401126200045b57600080fd5b6040518181018181106001604060020a03821117156200047f576200047f62000407565b6040529083019080858311156200049557600080fd5b845b83811015620004c8578051600160a060020a0381168114620004b95760008081fd5b82526020918201910162000497565b509095945050505050565b600281046001821680620004e857607f821691505b60208210810362000522577f4e487b7100000000000000000000000000000000000000000000000000000000600052602260045260246000fd5b50919050565b601f82111562000402576000818152602081206020601f86010481016020861015620005515750805b6020601f860104820191505b8181101562000572578281556001016200055d565b505050505050565b81516001604060020a0381111562000596576200059662000407565b620005ae81620005a78454620004d3565b8462000528565b602080601f831160018114620005ea5760008415620005cd5750858301515b60028086026008870290910a600019041982161786555062000572565b600085815260208120601f198616915b828110156200061b57888601518255948401946001909101908401620005fa565b50858210156200063c57878501516008601f88160260020a60001904191681555b5050505050600202600101905550565b7f4e487b7100000000000000000000000000000000000000000000000000000000600052601160045260246000fd5b600181815b80851115620006be578160001904821115620006a057620006a06200064c565b80851615620006ae57918102915b6002909404939080029062000680565b509250929050565b600082620006d75750600162000777565b81620006e65750600062000777565b8160018114620006ff57600281146200070a576200072b565b600191505062000777565b60ff8411156200071e576200071e6200064c565b8360020a91505062000777565b5060208310610133831016604e8410600b841016171562000750575081810a62000777565b6200075c83836200067b565b80600019048211156200077357620007736200064c565b0290505b92915050565b60006200078e60ff841683620006c6565b9392505050565b80820281158282048414176200077757620007776200064c565b808201808211156200077757620007776200064c565b610b4580620007d56000396000f3fe608060405234801561001057600080fd5b5060043610610112576000357c01000000000000000000000000000000000000000000000000000000009004806370a08231116100b4578063a457c2d711610083578063a457c2d714610208578063a9059cbb1461021b578063dd62ed3e1461022e578063f2fde38b1461024157600080fd5b806370a08231146101b2578063715018a6146101db5780638da5cb5b146101e557806395d89b411461020057600080fd5b806323b872dd116100f057806323b872dd1461016a578063313ce5671461017d57806332cb6b0c1461018c578063395093511461019f57600080fd5b806306fdde0314610117578063095ea7b31461013557806318160ddd14610158575b600080fd5b61011f610254565b60405161012c919061095d565b60405180910390f35b6101486101433660046109c7565b6102e6565b604051901515815260200161012c565b6002545b60405190815260200161012c565b6101486101783660046109f1565b610300565b6040516012815260200161012c565b61015c6b07c13bc4b2c133c56000000081565b6101486101ad3660046109c7565b610324565b61015c6101c0366004610a2d565b600160a060020a031660009081526020819052604090205490565b6101e3610346565b005b600554604051600160a060020a03909116815260200161012c565b61011f61035a565b6101486102163660046109c7565b610369565b6101486102293660046109c7565b610404565b61015c61023c366004610a4f565b610412565b6101e361024f366004610a2d565b61043d565b60606003805461026390610a82565b80601f016020809104026020016040519081016040528092919081815260200182805461028f90610a82565b80156102dc5780601f106102b1576101008083540402835291602001916102dc565b820191906000526020600020905b8154815290600101906020018083116102bf57829003601f168201915b5050505050905090565b6000336102f48185856104d0565b60019150505b92915050565b60003361030e85828561062e565b6103198585856106ab565b506001949350505050565b6000336102f48185856103378383610412565b6103419190610ad5565b6104d0565b61034e6108a1565b61035860006108fe565b565b60606004805461026390610a82565b600033816103778286610412565b9050838110156103f75760405160e560020a62461bcd02815260206004820152602560248201527f45524332303a2064656372656173656420616c6c6f77616e63652062656c6f7760448201527f207a65726f00000000000000000000000000000000000000000000000000000060648201526084015b60405180910390fd5b61031982868684036104d0565b6000336102f48185856106ab565b600160a060020a03918216600090815260016020908152604080832093909416825291909152205490565b6104456108a1565b600160a060020a0381166104c45760405160e560020a62461bcd02815260206004820152602660248201527f4f776e61626c653a206e6577206f776e657220697320746865207a65726f206160448201527f646472657373000000000000000000000000000000000000000000000000000060648201526084016103ee565b6104cd816108fe565b50565b600160a060020a03831661054e5760405160e560020a62461bcd028152602060048201526024808201527f45524332303a20617070726f76652066726f6d20746865207a65726f2061646460448201527f726573730000000000000000000000000000000000000000000000000000000060648201526084016103ee565b600160a060020a0382166105cd5760405160e560020a62461bcd02815260206004820152602260248201527f45524332303a20617070726f766520746f20746865207a65726f20616464726560448201527f737300000000000000000000000000000000000000000000000000000000000060648201526084016103ee565b600160a060020a0383811660008181526001602090815260408083209487168084529482529182902085905590518481527f8c5be1e5ebec7d5bd14f71427d1e84f3dd0314c0f7b2291e5b200ac8c7c3b925910160405180910390a3505050565b600061063a8484610412565b905060001981146106a557818110156106985760405160e560020a62461bcd02815260206004820152601d60248201527f45524332303a20696e73756666696369656e7420616c6c6f77616e636500000060448201526064016103ee565b6106a584848484036104d0565b50505050565b600160a060020a03831661072a5760405160e560020a62461bcd02815260206004820152602560248201527f45524332303a207472616e736665722066726f6d20746865207a65726f20616460448201527f647265737300000000000000000000000000000000000000000000000000000060648201526084016103ee565b600160a060020a0382166107a95760405160e560020a62461bcd02815260206004820152602360248201527f45524332303a207472616e7366657220746f20746865207a65726f206164647260448201527f657373000000000000000000000000000000000000000000000000000000000060648201526084016103ee565b600160a060020a0383166000908152602081905260409020548181101561083b5760405160e560020a62461bcd02815260206004820152602660248201527f45524332303a207472616e7366657220616d6f756e742065786365656473206260448201527f616c616e6365000000000000000000000000000000000000000000000000000060648201526084016103ee565b600160a060020a03848116600081815260208181526040808320878703905593871680835291849020805487019055925185815290927fddf252ad1be2c89b69c2b068fc378daa952ba7f163c4a11628f55a4df523b3ef910160405180910390a36106a5565b600554600160a060020a031633146103585760405160e560020a62461bcd02815260206004820181905260248201527f4f776e61626c653a2063616c6c6572206973206e6f7420746865206f776e657260448201526064016103ee565b60058054600160a060020a0383811673ffffffffffffffffffffffffffffffffffffffff19831681179093556040519116919082907f8be0079c531659141344cd1fd0a4f28419497f9722a3daafe3b4186f6b6457e090600090a35050565b600060208083528351808285015260005b8181101561098a5785810183015185820160400152820161096e565b506000604082860101526040601f19601f8301168501019250505092915050565b8035600160a060020a03811681146109c257600080fd5b919050565b600080604083850312156109da57600080fd5b6109e3836109ab565b946020939093013593505050565b600080600060608486031215610a0657600080fd5b610a0f846109ab565b9250610a1d602085016109ab565b9150604084013590509250925092565b600060208284031215610a3f57600080fd5b610a48826109ab565b9392505050565b60008060408385031215610a6257600080fd5b610a6b836109ab565b9150610a79602084016109ab565b90509250929050565b600281046001821680610a9657607f821691505b602082108103610acf577f4e487b7100000000000000000000000000000000000000000000000000000000600052602260045260246000fd5b50919050565b808201808211156102fa577f4e487b7100000000000000000000000000000000000000000000000000000000600052601160045260246000fdfea26469706673582212208aed41a3ab99afe3c9721ec5537e73af3a31928e6150357f1194b2352315814c64736f6c63430008140033",
  "immutableReferences": {},
  "source": "// SPDX-License-Identifier: MIT\npragma solidity 0.8.20;\n\nimport \"@openzeppelin/contracts/access/Ownable.sol\";\nimport \"@openzeppelin/contracts/token/ERC20/ERC20.sol\";\n\ncontract BitDelta is ERC20, Ownable {\n   // Defining the maximum supply of tokens\n  uint256 public constant MAX_SUPPLY = 2_400_000_000_000_000_000_000_000_000;\n  \n  constructor( \n        // Receives an array of 13 addresses to which initial token amounts will be minted\n        address[13] memory addresses\n        ) ERC20(\"BitDelta\",\"BDT\") {\n        // Minting tokens to the supplied addresses with respective purposes\n        _mint(addresses[0], 240_000_000 * (10 ** decimals()));//KOL Branding\n        _mint(addresses[1], 360_000_000 * (10 ** decimals()));//Platform Governance\n        _mint(addresses[2], 240_000_000 * (10 ** decimals()));//Team Incentive\n        _mint(addresses[3], 240_000_000 * (10 ** decimals()));//Referral and Airdrop\n        _mint(addresses[4], 240_000_000 * (10 ** decimals()));//Ecosystem\n        _mint(addresses[5], 120_000_000 * (10 ** decimals()));//Project Advisory Panel\n        _mint(addresses[6], 120_000_000 * (10 ** decimals()));//Staking\n        _mint(addresses[7], 120_000_000 * (10 ** decimals()));//Founders and Affiliates\n        _mint(addresses[8], 120_000_000 * (10 ** decimals()));//Strategy\n        _mint(addresses[9], 120_000_000 * (10 ** decimals()));//Treasury and Platform\n        _mint(addresses[10], 159_840_000 * (10 ** decimals()));//Private Sale 1\n        _mint(addresses[11], 159_840_000 * (10 ** decimals()));//Private Sale 2\n        _mint(addresses[12], 160_320_000 * (10 ** decimals()));//Public Sale\n  }\n\n}\n",
  "sourcePath": "/Users/osamabari/Documents/Bitdelta/Smart_ Contract/contracts/Bitdelta.sol",
  "compiler": {
    "name": "solc",
    "version": "0.8.20+commit.a1b79de6.Emscripten.clang"
  },
  "schemaVersion": "3.4.14",
  "updatedAt": "2023-07-19T13:11:22.449Z",
  "devdoc": {
    "events": {
      "Approval(address,address,uint256)": {
        "details": "Emitted when the allowance of a `spender` for an `owner` is set by a call to {approve}. `value` is the new allowance."
      },
      "Transfer(address,address,uint256)": {
        "details": "Emitted when `value` tokens are moved from one account (`from`) to another (`to`). Note that `value` may be zero."
      }
    },
    "kind": "dev",
    "methods": {
      "allowance(address,address)": {
        "details": "See {IERC20-allowance}."
      },
      "approve(address,uint256)": {
        "details": "See {IERC20-approve}. NOTE: If `amount` is the maximum `uint256`, the allowance is not updated on `transferFrom`. This is semantically equivalent to an infinite approval. Requirements: - `spender` cannot be the zero address."
      },
      "balanceOf(address)": {
        "details": "See {IERC20-balanceOf}."
      },
      "decimals()": {
        "details": "Returns the number of decimals used to get its user representation. For example, if `decimals` equals `2`, a balance of `505` tokens should be displayed to a user as `5.05` (`505 / 10 ** 2`). Tokens usually opt for a value of 18, imitating the relationship between Ether and Wei. This is the default value returned by this function, unless it's overridden. NOTE: This information is only used for _display_ purposes: it in no way affects any of the arithmetic of the contract, including {IERC20-balanceOf} and {IERC20-transfer}."
      },
      "decreaseAllowance(address,uint256)": {
        "details": "Atomically decreases the allowance granted to `spender` by the caller. This is an alternative to {approve} that can be used as a mitigation for problems described in {IERC20-approve}. Emits an {Approval} event indicating the updated allowance. Requirements: - `spender` cannot be the zero address. - `spender` must have allowance for the caller of at least `subtractedValue`."
      },
      "increaseAllowance(address,uint256)": {
        "details": "Atomically increases the allowance granted to `spender` by the caller. This is an alternative to {approve} that can be used as a mitigation for problems described in {IERC20-approve}. Emits an {Approval} event indicating the updated allowance. Requirements: - `spender` cannot be the zero address."
      },
      "name()": {
        "details": "Returns the name of the token."
      },
      "owner()": {
        "details": "Returns the address of the current owner."
      },
      "renounceOwnership()": {
        "details": "Leaves the contract without owner. It will not be possible to call `onlyOwner` functions. Can only be called by the current owner. NOTE: Renouncing ownership will leave the contract without an owner, thereby disabling any functionality that is only available to the owner."
      },
      "symbol()": {
        "details": "Returns the symbol of the token, usually a shorter version of the name."
      },
      "totalSupply()": {
        "details": "See {IERC20-totalSupply}."
      },
      "transfer(address,uint256)": {
        "details": "See {IERC20-transfer}. Requirements: - `to` cannot be the zero address. - the caller must have a balance of at least `amount`."
      },
      "transferFrom(address,address,uint256)": {
        "details": "See {IERC20-transferFrom}. Emits an {Approval} event indicating the updated allowance. This is not required by the EIP. See the note at the beginning of {ERC20}. NOTE: Does not update the allowance if the current allowance is the maximum `uint256`. Requirements: - `from` and `to` cannot be the zero address. - `from` must have a balance of at least `amount`. - the caller must have allowance for ``from``'s tokens of at least `amount`."
      },
      "transferOwnership(address)": {
        "details": "Transfers ownership of the contract to a new account (`newOwner`). Can only be called by the current owner."
      }
    },
    "version": 1
  },
  "userdoc": {
    "kind": "user",
    "methods": {},
    "version": 1
  }
}