{
  "contractName": "BitDelta",
  "abi": [
    {
      "inputs": [
        {
          "internalType": "address[13]",
          "name": "addresses",
          "type": "address[13]"
        }
      ],
      "stateMutability": "nonpayable",
      "type": "constructor"
    },
    {
      "anonymous": false,
      "inputs": [
        {
          "indexed": true,
          "internalType": "address",
          "name": "owner",
          "type": "address"
        },
        {
          "indexed": true,
          "internalType": "address",
          "name": "spender",
          "type": "address"
        },
        {
          "indexed": false,
          "internalType": "uint256",
          "name": "value",
          "type": "uint256"
        }
      ],
      "name": "Approval",
      "type": "event"
    },
    {
      "anonymous": false,
      "inputs": [
        {
          "indexed": true,
          "internalType": "address",
          "name": "previousOwner",
          "type": "address"
        },
        {
          "indexed": true,
          "internalType": "address",
          "name": "newOwner",
          "type": "address"
        }
      ],
      "name": "OwnershipTransferred",
      "type": "event"
    },
    {
      "anonymous": false,
      "inputs": [
        {
          "indexed": true,
          "internalType": "address",
          "name": "from",
          "type": "address"
        },
        {
          "indexed": true,
          "internalType": "address",
          "name": "to",
          "type": "address"
        },
        {
          "indexed": false,
          "internalType": "uint256",
          "name": "value",
          "type": "uint256"
        }
      ],
      "name": "Transfer",
      "type": "event"
    },
    {
      "inputs": [],
      "name": "MAX_SUPPLY",
      "outputs": [
        {
          "internalType": "uint256",
          "name": "",
          "type": "uint256"
        }
      ],
      "stateMutability": "view",
      "type": "function",
      "constant": true
    },
    {
      "inputs": [
        {
          "internalType": "address",
          "name": "owner",
          "type": "address"
        },
        {
          "internalType": "address",
          "name": "spender",
          "type": "address"
        }
      ],
      "name": "allowance",
      "outputs": [
        {
          "internalType": "uint256",
          "name": "",
          "type": "uint256"
        }
      ],
      "stateMutability": "view",
      "type": "function",
      "constant": true
    },
    {
      "inputs": [
        {
          "internalType": "address",
          "name": "spender",
          "type": "address"
        },
        {
          "internalType": "uint256",
          "name": "amount",
          "type": "uint256"
        }
      ],
      "name": "approve",
      "outputs": [
        {
          "internalType": "bool",
          "name": "",
          "type": "bool"
        }
      ],
      "stateMutability": "nonpayable",
      "type": "function"
    },
    {
      "inputs": [
        {
          "internalType": "address",
          "name": "account",
          "type": "address"
        }
      ],
      "name": "balanceOf",
      "outputs": [
        {
          "internalType": "uint256",
          "name": "",
          "type": "uint256"
        }
      ],
      "stateMutability": "view",
      "type": "function",
      "constant": true
    },
    {
      "inputs": [],
      "name": "decimals",
      "outputs": [
        {
          "internalType": "uint8",
          "name": "",
          "type": "uint8"
        }
      ],
      "stateMutability": "view",
      "type": "function",
      "constant": true
    },
    {
      "inputs": [
        {
          "internalType": "address",
          "name": "spender",
          "type": "address"
        },
        {
          "internalType": "uint256",
          "name": "subtractedValue",
          "type": "uint256"
        }
      ],
      "name": "decreaseAllowance",
      "outputs": [
        {
          "internalType": "bool",
          "name": "",
          "type": "bool"
        }
      ],
      "stateMutability": "nonpayable",
      "type": "function"
    },
    {
      "inputs": [
        {
          "internalType": "address",
          "name": "spender",
          "type": "address"
        },
        {
          "internalType": "uint256",
          "name": "addedValue",
          "type": "uint256"
        }
      ],
      "name": "increaseAllowance",
      "outputs": [
        {
          "internalType": "bool",
          "name": "",
          "type": "bool"
        }
      ],
      "stateMutability": "nonpayable",
      "type": "function"
    },
    {
      "inputs": [],
      "name": "name",
      "outputs": [
        {
          "internalType": "string",
          "name": "",
          "type": "string"
        }
      ],
      "stateMutability": "view",
      "type": "function",
      "constant": true
    },
    {
      "inputs": [],
      "name": "owner",
      "outputs": [
        {
          "internalType": "address",
          "name": "",
          "type": "address"
        }
      ],
      "stateMutability": "view",
      "type": "function",
      "constant": true
    },
    {
      "inputs": [],
      "name": "renounceOwnership",
      "outputs": [],
      "stateMutability": "nonpayable",
      "type": "function"
    },
    {
      "inputs": [],
      "name": "symbol",
      "outputs": [
        {
          "internalType": "string",
          "name": "",
          "type": "string"
        }
      ],
      "stateMutability": "view",
      "type": "function",
      "constant": true
    },
    {
      "inputs": [],
      "name": "totalSupply",
      "outputs": [
        {
          "internalType": "uint256",
          "name": "",
          "type": "uint256"
        }
      ],
      "stateMutability": "view",
      "type": "function",
      "constant": true
    },
    {
      "inputs": [
        {
          "internalType": "address",
          "name": "to",
          "type": "address"
        },
        {
          "internalType": "uint256",
          "name": "amount",
          "type": "uint256"
        }
      ],
      "name": "transfer",
      "outputs": [
        {
          "internalType": "bool",
          "name": "",
          "type": "bool"
        }
      ],
      "stateMutability": "nonpayable",
      "type": "function"
    },
    {
      "inputs": [
        {
          "internalType": "address",
          "name": "from",
          "type": "address"
        },
        {
          "internalType": "address",
          "name": "to",
          "type": "address"
        },
        {
          "internalType": "uint256",
          "name": "amount",
          "type": "uint256"
        }
      ],
      "name": "transferFrom",
      "outputs": [
        {
          "internalType": "bool",
          "name": "",
          "type": "bool"
        }
      ],
      "stateMutability": "nonpayable",
      "type": "function"
    },
    {
      "inputs": [
        {
          "internalType": "address",
          "name": "newOwner",
          "type": "address"
        }
      ],
      "name": "transferOwnership",
      "outputs": [],
      "stateMutability": "nonpayable",
      "type": "function"
    }
  ],
  "bytecode": "0x60806040523480156200001157600080fd5b50604051620012c4380380620012c48339810160408190526200003491620004d5565b6040518060400160405280600881526020017f42697444656c74610000000000000000000000000000000000000000000000008152506040518060400160405280600381526020017f42445400000000000000000000000000000000000000000000000000000000008152508160039080519060200190620000b892919062000412565b508051620000ce90600490602084019062000412565b505050620000fd620000ee620002a4640100000000026401000000009004565b640100000000620002a8810204565b8051620001439062000117640100000000620002fa810204565b6200012490600a620006bb565b62000134906315752a00620006d3565b640100000000620002ff810204565b620001808160015b602002015162000163640100000000620002fa810204565b6200017090600a620006bb565b6200013490630e4e1c00620006d3565b6200018d8160026200014b565b6200019a8160036200014b565b620001a78160046200014b565b620001e48160055b6020020151620001c7640100000000620002fa810204565b620001d490600a620006bb565b62000134906307270e00620006d3565b620001f1816006620001af565b620001fe816007620001af565b6200020b816008620001af565b62000218816009620001af565b6200025581600a5b602002015162000238640100000000620002fa810204565b6200024590600a620006bb565b6200013490630986f700620006d3565b6200026281600b62000220565b6101808101516200029d9062000280640100000000620002fa810204565b6200028d90600a620006bb565b620001349063098e4a00620006d3565b5062000765565b3390565b60058054600160a060020a03838116600160a060020a0319831681179093556040519116919082907f8be0079c531659141344cd1fd0a4f28419497f9722a3daafe3b4186f6b6457e090600090a35050565b601290565b600160a060020a03821662000374576040517f08c379a000000000000000000000000000000000000000000000000000000000815260206004820152601f60248201527f45524332303a206d696e7420746f20746865207a65726f206164647265737300604482015260640160405180910390fd5b6200038b600083836401000000006200040d810204565b80600260008282546200039f9190620006f5565b9091555050600160a060020a038216600081815260208181526040808320805486019055518481527fddf252ad1be2c89b69c2b068fc378daa952ba7f163c4a11628f55a4df523b3ef910160405180910390a362000409600083836401000000006200040d810204565b5050565b505050565b828054620004209062000710565b90600052602060002090601f0160209004810192826200044457600085556200048f565b82601f106200045f57805160ff19168380011785556200048f565b828001600101855582156200048f579182015b828111156200048f57825182559160200191906001019062000472565b506200049d929150620004a1565b5090565b5b808211156200049d5760008155600101620004a2565b8051600160a060020a0381168114620004d057600080fd5b919050565b60006101a0808385031215620004ea57600080fd5b83601f840112620004fa57600080fd5b60405181810181811067ffffffffffffffff8211171562000544577f4e487b7100000000000000000000000000000000000000000000000000000000600052604160045260246000fd5b6040529083019080858311156200055a57600080fd5b845b838110156200057f576200057081620004b8565b8252602091820191016200055c565b509095945050505050565b7f4e487b7100000000000000000000000000000000000000000000000000000000600052601160045260246000fd5b600181815b80851115620005fc578160001904821115620005de57620005de6200058a565b80851615620005ec57918102915b60029094049390800290620005be565b509250929050565b6000826200061557506001620006b5565b816200062457506000620006b5565b81600181146200063d5760028114620006485762000669565b6001915050620006b5565b60ff8411156200065c576200065c6200058a565b8360020a915050620006b5565b5060208310610133831016604e8410600b84101617156200068e575081810a620006b5565b6200069a8383620005b9565b8060001904821115620006b157620006b16200058a565b0290505b92915050565b6000620006cc60ff84168362000604565b9392505050565b6000816000190483118215151615620006f057620006f06200058a565b500290565b600082198211156200070b576200070b6200058a565b500190565b6002810460018216806200072557607f821691505b6020821081036200075f577f4e487b7100000000000000000000000000000000000000000000000000000000600052602260045260246000fd5b50919050565b610b4f80620007756000396000f3fe608060405234801561001057600080fd5b5060043610610112576000357c01000000000000000000000000000000000000000000000000000000009004806370a08231116100b4578063a457c2d711610083578063a457c2d714610208578063a9059cbb1461021b578063dd62ed3e1461022e578063f2fde38b1461024157600080fd5b806370a08231146101b2578063715018a6146101db5780638da5cb5b146101e557806395d89b411461020057600080fd5b806323b872dd116100f057806323b872dd1461016a578063313ce5671461017d57806332cb6b0c1461018c578063395093511461019f57600080fd5b806306fdde0314610117578063095ea7b31461013557806318160ddd14610158575b600080fd5b61011f610254565b60405161012c919061095b565b60405180910390f35b6101486101433660046109cc565b6102e6565b604051901515815260200161012c565b6002545b60405190815260200161012c565b6101486101783660046109f6565b6102fe565b6040516012815260200161012c565b61015c6b07c13bc4b2c133c56000000081565b6101486101ad3660046109cc565b610322565b61015c6101c0366004610a32565b600160a060020a031660009081526020819052604090205490565b6101e3610344565b005b600554604051600160a060020a03909116815260200161012c565b61011f610358565b6101486102163660046109cc565b610367565b6101486102293660046109cc565b610402565b61015c61023c366004610a54565b610410565b6101e361024f366004610a32565b61043b565b60606003805461026390610a87565b80601f016020809104026020016040519081016040528092919081815260200182805461028f90610a87565b80156102dc5780601f106102b1576101008083540402835291602001916102dc565b820191906000526020600020905b8154815290600101906020018083116102bf57829003601f168201915b5050505050905090565b6000336102f48185856104ce565b5060019392505050565b60003361030c85828561062c565b6103178585856106a9565b506001949350505050565b6000336102f48185856103358383610410565b61033f9190610ada565b6104ce565b61034c61089f565b61035660006108fc565b565b60606004805461026390610a87565b600033816103758286610410565b9050838110156103f55760405160e560020a62461bcd02815260206004820152602560248201527f45524332303a2064656372656173656420616c6c6f77616e63652062656c6f7760448201527f207a65726f00000000000000000000000000000000000000000000000000000060648201526084015b60405180910390fd5b61031782868684036104ce565b6000336102f48185856106a9565b600160a060020a03918216600090815260016020908152604080832093909416825291909152205490565b61044361089f565b600160a060020a0381166104c25760405160e560020a62461bcd02815260206004820152602660248201527f4f776e61626c653a206e6577206f776e657220697320746865207a65726f206160448201527f646472657373000000000000000000000000000000000000000000000000000060648201526084016103ec565b6104cb816108fc565b50565b600160a060020a03831661054c5760405160e560020a62461bcd028152602060048201526024808201527f45524332303a20617070726f76652066726f6d20746865207a65726f2061646460448201527f726573730000000000000000000000000000000000000000000000000000000060648201526084016103ec565b600160a060020a0382166105cb5760405160e560020a62461bcd02815260206004820152602260248201527f45524332303a20617070726f766520746f20746865207a65726f20616464726560448201527f737300000000000000000000000000000000000000000000000000000000000060648201526084016103ec565b600160a060020a0383811660008181526001602090815260408083209487168084529482529182902085905590518481527f8c5be1e5ebec7d5bd14f71427d1e84f3dd0314c0f7b2291e5b200ac8c7c3b925910160405180910390a3505050565b60006106388484610410565b905060001981146106a357818110156106965760405160e560020a62461bcd02815260206004820152601d60248201527f45524332303a20696e73756666696369656e7420616c6c6f77616e636500000060448201526064016103ec565b6106a384848484036104ce565b50505050565b600160a060020a0383166107285760405160e560020a62461bcd02815260206004820152602560248201527f45524332303a207472616e736665722066726f6d20746865207a65726f20616460448201527f647265737300000000000000000000000000000000000000000000000000000060648201526084016103ec565b600160a060020a0382166107a75760405160e560020a62461bcd02815260206004820152602360248201527f45524332303a207472616e7366657220746f20746865207a65726f206164647260448201527f657373000000000000000000000000000000000000000000000000000000000060648201526084016103ec565b600160a060020a038316600090815260208190526040902054818110156108395760405160e560020a62461bcd02815260206004820152602660248201527f45524332303a207472616e7366657220616d6f756e742065786365656473206260448201527f616c616e6365000000000000000000000000000000000000000000000000000060648201526084016103ec565b600160a060020a03848116600081815260208181526040808320878703905593871680835291849020805487019055925185815290927fddf252ad1be2c89b69c2b068fc378daa952ba7f163c4a11628f55a4df523b3ef910160405180910390a36106a3565b600554600160a060020a031633146103565760405160e560020a62461bcd02815260206004820181905260248201527f4f776e61626c653a2063616c6c6572206973206e6f7420746865206f776e657260448201526064016103ec565b60058054600160a060020a0383811673ffffffffffffffffffffffffffffffffffffffff19831681179093556040519116919082907f8be0079c531659141344cd1fd0a4f28419497f9722a3daafe3b4186f6b6457e090600090a35050565b600060208083528351808285015260005b818110156109885785810183015185820160400152820161096c565b8181111561099a576000604083870101525b50601f01601f1916929092016040019392505050565b8035600160a060020a03811681146109c757600080fd5b919050565b600080604083850312156109df57600080fd5b6109e8836109b0565b946020939093013593505050565b600080600060608486031215610a0b57600080fd5b610a14846109b0565b9250610a22602085016109b0565b9150604084013590509250925092565b600060208284031215610a4457600080fd5b610a4d826109b0565b9392505050565b60008060408385031215610a6757600080fd5b610a70836109b0565b9150610a7e602084016109b0565b90509250929050565b600281046001821680610a9b57607f821691505b602082108103610ad4577f4e487b7100000000000000000000000000000000000000000000000000000000600052602260045260246000fd5b50919050565b60008219821115610b14577f4e487b7100000000000000000000000000000000000000000000000000000000600052601160045260246000fd5b50019056fea26469706673582212209f55d54dda2f628ae8a000183dd8e2a4bfb617b141f6b633b2d70afb0acd368464736f6c634300080e0033",
  "immutableReferences": {},
  "source": "// SPDX-License-Identifier: MIT\npragma solidity 0.8.14;\n\nimport \"@openzeppelin/contracts/access/Ownable.sol\";\nimport \"@openzeppelin/contracts/token/ERC20/ERC20.sol\";\n\ncontract BitDelta is ERC20, Ownable {\n   // Defining the maximum supply of tokens\n  uint256 public constant MAX_SUPPLY = 2_400_000_000_000_000_000_000_000_000;\n  \n  constructor( \n        // Receives an array of 13 addresses to which initial token amounts will be minted\n        address[13] memory addresses\n        ) ERC20(\"BitDelta\",\"BDT\") {\n        // Minting tokens to the supplied addresses with respective purposes\n        _mint(addresses[0], 360_000_000 * (10 ** decimals()));//KOL Branding\n        _mint(addresses[1], 240_000_000 * (10 ** decimals()));//Platform Governance\n        _mint(addresses[2], 240_000_000 * (10 ** decimals()));//Team Incentive\n        _mint(addresses[3], 240_000_000 * (10 ** decimals()));//Referral and Airdrop\n        _mint(addresses[4], 240_000_000 * (10 ** decimals()));//Ecosystem\n        _mint(addresses[5], 120_000_000 * (10 ** decimals()));//Project Advisory Panel\n        _mint(addresses[6], 120_000_000 * (10 ** decimals()));//Staking\n        _mint(addresses[7], 120_000_000 * (10 ** decimals()));//Founders and Affiliates\n        _mint(addresses[8], 120_000_000 * (10 ** decimals()));//Strategy\n        _mint(addresses[9], 120_000_000 * (10 ** decimals()));//Treasury and Platform\n        _mint(addresses[10], 159_840_000 * (10 ** decimals()));//Private Sale 1\n        _mint(addresses[11], 159_840_000 * (10 ** decimals()));//Private Sale 2\n        _mint(addresses[12], 160_320_000 * (10 ** decimals()));//Public Sale\n  }\n\n}\n",
  "sourcePath": "/Users/osamabari/Documents/Bitdelta/Smart_ Contract/contracts/Bitdelta.sol",
  "compiler": {
    "name": "solc",
    "version": "0.8.14+commit.80d49f37.Emscripten.clang"
  },
  "schemaVersion": "3.4.14",
  "updatedAt": "2023-07-18T16:19:51.518Z",
  "networkType": "ethereum",
  "devdoc": {
    "kind": "dev",
    "methods": {
      "allowance(address,address)": {
        "details": "See {IERC20-allowance}."
      },
      "approve(address,uint256)": {
        "details": "See {IERC20-approve}. NOTE: If `amount` is the maximum `uint256`, the allowance is not updated on `transferFrom`. This is semantically equivalent to an infinite approval. Requirements: - `spender` cannot be the zero address."
      },
      "balanceOf(address)": {
        "details": "See {IERC20-balanceOf}."
      },
      "decimals()": {
        "details": "Returns the number of decimals used to get its user representation. For example, if `decimals` equals `2`, a balance of `505` tokens should be displayed to a user as `5.05` (`505 / 10 ** 2`). Tokens usually opt for a value of 18, imitating the relationship between Ether and Wei. This is the default value returned by this function, unless it's overridden. NOTE: This information is only used for _display_ purposes: it in no way affects any of the arithmetic of the contract, including {IERC20-balanceOf} and {IERC20-transfer}."
      },
      "decreaseAllowance(address,uint256)": {
        "details": "Atomically decreases the allowance granted to `spender` by the caller. This is an alternative to {approve} that can be used as a mitigation for problems described in {IERC20-approve}. Emits an {Approval} event indicating the updated allowance. Requirements: - `spender` cannot be the zero address. - `spender` must have allowance for the caller of at least `subtractedValue`."
      },
      "increaseAllowance(address,uint256)": {
        "details": "Atomically increases the allowance granted to `spender` by the caller. This is an alternative to {approve} that can be used as a mitigation for problems described in {IERC20-approve}. Emits an {Approval} event indicating the updated allowance. Requirements: - `spender` cannot be the zero address."
      },
      "name()": {
        "details": "Returns the name of the token."
      },
      "owner()": {
        "details": "Returns the address of the current owner."
      },
      "renounceOwnership()": {
        "details": "Leaves the contract without owner. It will not be possible to call `onlyOwner` functions. Can only be called by the current owner. NOTE: Renouncing ownership will leave the contract without an owner, thereby disabling any functionality that is only available to the owner."
      },
      "symbol()": {
        "details": "Returns the symbol of the token, usually a shorter version of the name."
      },
      "totalSupply()": {
        "details": "See {IERC20-totalSupply}."
      },
      "transfer(address,uint256)": {
        "details": "See {IERC20-transfer}. Requirements: - `to` cannot be the zero address. - the caller must have a balance of at least `amount`."
      },
      "transferFrom(address,address,uint256)": {
        "details": "See {IERC20-transferFrom}. Emits an {Approval} event indicating the updated allowance. This is not required by the EIP. See the note at the beginning of {ERC20}. NOTE: Does not update the allowance if the current allowance is the maximum `uint256`. Requirements: - `from` and `to` cannot be the zero address. - `from` must have a balance of at least `amount`. - the caller must have allowance for ``from``'s tokens of at least `amount`."
      },
      "transferOwnership(address)": {
        "details": "Transfers ownership of the contract to a new account (`newOwner`). Can only be called by the current owner."
      }
    },
    "version": 1
  },
  "userdoc": {
    "kind": "user",
    "methods": {},
    "version": 1
  }
}